:100000000C9462000C948A000C948A000C948A0070
:100010000C948A000C948A000C948A000C948A0038
:100020000C948A000C948A000C948A000C948A0028
:100030000C948A000C948A000C948A000C948A0018
:100040000C9443030C948A000C94DD010C948A00F8
:100050000C948A000C948A000C948A000C948A00F8
:100060000C948A000C948A000000000024002700F1
:100070002A0000000000250028002B0000000000DE
:1000800023002600290004040404040404040202DA
:100090000202020203030303030301020408102007
:1000A0004080010204081020010204081020000012
:1000B0000007000201000003040600000000000029
:1000C0000000D20211241FBECFEFD4E0DEBFCDBFAF
:1000D00011E0A0E0B1E0E6E4FAE002C005900D9284
:1000E000A431B107D9F711E0A4E1B1E001C01D923C
:1000F000A63CB107E1F710E0C4ECD0E004C02297C1
:10010000FE010E941D05C23CD107C9F70E94D6011D
:100110000C9421050C940000EF92FF920F931F9313
:10012000CF93DF937B018A010E946804EC01F80100
:1001300080819181C817D90751F00E94B303609361
:100140001A0170931B0180931C0190931D010E9462
:10015000B30320911A0130911B0140911C01509171
:100160001D01621B730B840B950B209108013091CC
:10017000090140910A0150910B01261737074807E2
:10018000590718F4F701D183C083F801D183C083E4
:10019000DF91CF911F910F91FF90EF9008951F93E2
:1001A000182F0E94B303209120013091210140912A
:1001B000220150912301621B730B840B950B20913C
:1001C0000C0130910D01442737FD4095542F26171F
:1001D000370748075907D8F40E94B30360932001FA
:1001E00070932101809322019093230160E070E0DD
:1001F00080911E0190911F01892B11F461E070E044
:1002000070931F0160931E01812F0E941B041F9198
:10021000089580911401909115018230910599F013
:10022000833091052CF4009749F00197A9F40BC095
:100230008330910541F0049779F40AC08DE060E0C5
:100240000E941B0408958DE090E00E94CF00089565
:100250008DE061E00E941B04089588EA91E00E940D
:100260008302882389F088EA91E00E9497029093A4
:100270000701809306018035910531F484E090E018
:100280009093150180931401089588EA91E00E94EB
:100290008302882389F088EA91E00E949702909374
:1002A0000701809306018334910531F482E090E0E8
:1002B0009093150180931401089588EA91E060E01D
:1002C00071E00E94380383E090E0909315018093E1
:1002D00014010895CF93DF93C0911801D0911901B3
:1002E000C130D10551F488EA91E062E071E00E94EA
:1002F0003803D0931501C0931401DF91CF91089575
:1003000080911401909115018130910579F082302E
:1003100091051CF4892B39F008958230910549F03C
:10032000039761F409C00E946A0108950E94450183
:1003300008950E945D0108950E942D010895809105
:10034000180190911901892B81F4809114019091E9
:100350001501892B51F088EA91E064E071E00E9478
:1003600038031092150110921401089582E090E074
:1003700068E171E046E151E00E948C000E949F011B
:100380000E9480010E94090108958DE061E00E94B1
:10039000FB0382E060E00E94FB0388EA91E040E812
:1003A00055E260E070E00E941A0208950E94C103C5
:1003B0000E94C5010E94B601FDCF1F920F920FB699
:1003C0000F9211242F933F934F935F936F937F93DB
:1003D0008F939F93AF93BF93EF93FF934091C6008A
:1003E000E091A401F091A501CF01019660E870E0D1
:1003F0000E94B7049C018091A6019091A701281743
:10040000390739F0EC5DFE4F40833093A50120930E
:10041000A401FF91EF91BF91AF919F918F917F9137
:100420006F915F914F913F912F910F900FBE0F9061
:100430001F901895AF92BF92CF92DF92EF92FF92EA
:100440000F931F93CF93DF936C017A018B01DC0133
:100450001496AD90BC901597CB01BA0122E030E024
:1004600040E050E00E94EC04205C3D4B404F5F4F69
:10047000CA01B901A80197010E94EC04C901DA017F
:100480000197A109B109292F3A2F4B2F552747FD75
:100490005A950196A11DB11DE5012883E601EE8163
:1004A000FF8181508083EA85FB85208141E050E017
:1004B000CA010E8402C0880F991F0A94E2F7282B04
:1004C0002083EA85FB852081CA010F8402C0880F42
:1004D000991F0A94E2F7282B2083EA85FB85808107
:1004E000088802C0440F551F0A94E2F7842B8083CA
:1004F000DF91CF911F910F91FF90EF90DF90CF9000
:10050000BF90AF900895DC011296ED91FC91139786
:10051000E058FF4F8191919180589F4F2081318108
:10052000821B930B60E870E00E94B7040895CF939C
:10053000DF93DC011296ED91FC911397EF01CE57FA
:10054000DF4F48815981E058FF4F80819181E05809
:10055000F0408417950719F42FEF3FEF0CC0E40F1C
:10056000F51F2081CA01019660E870E00E94B7047F
:100570009983888330E0C901DF91CF910895FC0110
:10058000A085B18521898C9190E0022E02C09595BD
:1005900087950A94E2F780FFF6CF0484F585E02D75
:1005A0006083089582E191E09093A9018093A8016E
:1005B00084E291E09093AB018093AA0185EC90E0F6
:1005C0009093AD018093AC0184EC90E09093AF01E7
:1005D0008093AE0180EC90E09093B1018093B001E4
:1005E00081EC90E09093B3018093B20186EC90E0AF
:1005F0009093B5018093B40184E08093B60183E0C9
:100600008093B70187E08093B80185E08093B901BA
:1006100008950F931F93CF93DF938C01EB0109C0D3
:100620002196D801ED91FC910190F081E02DC80157
:10063000099568816623A1F7DF91CF911F910F91F2
:1006400008950F931F938C01DC01ED91FC910190B3
:10065000F081E02D6DE00995D801ED91FC910190BC
:10066000F081E02DC8016AE009951F910F9108956E
:100670000F931F938C010E940903C8010E9421035C
:100680001F910F9108951F920F920FB60F92112490
:100690002F938F939F93AF93BF938091BA019091C3
:1006A000BB01A091BC01B091BD010196A11DB11D7E
:1006B0008093BA019093BB01A093BC01B093BD019C
:1006C0008091BE019091BF01A091C001B091C10184
:1006D0008050904CAF4FBF4F8093BE019093BF01AD
:1006E000A093C001B093C10127C08091BE01909139
:1006F000BF01A091C001B091C10180589E43A040AC
:10070000B0408093BE019093BF01A093C001B0930D
:10071000C1018091C2019091C301A091C401B09127
:10072000C5010196A11DB11D8093C2019093C30123
:10073000A093C401B093C5018091BE019091BF0107
:10074000A091C001B091C10181589E43A040B0402A
:1007500060F6BF91AF919F918F912F910F900FBE37
:100760000F901F9018958FB7F8942091C201309187
:10077000C3014091C4015091C5018FBFB901CA01A5
:100780000895789484B5826084BD84B5816084BD09
:1007900085B5826085BD85B5816085BDEEE6F0E0FA
:1007A000808181608083E1E8F0E0808182608083E5
:1007B000808181608083E0E8F0E0808181608083D7
:1007C000E1EBF0E0808184608083E0EBF0E0808109
:1007D00081608083EAE7F0E08081846080838081AB
:1007E0008260808380818160808380818068808353
:1007F0001092C1000895282F30E0C90186569F4FFE
:10080000FC0194912A573F4FF9018491882391F07C
:10081000E82FF0E0EE0FFF1FE859FF4FA591B491CC
:10082000662329F48C91909589238C9308958C915B
:10083000892B8C930895482F50E0CA0182559F4F11
:10084000FC012491CA0186569F4FFC0194914A579E
:100850005F4FFA0134913323D1F1222331F1233058
:1008600021F4809180008F7705C0243031F480918D
:1008700080008F7D8093800018C0213019F484B5EA
:100880008F7704C0223021F484B58F7D84BD0DC0E4
:10089000263021F48091B0008F7705C0273029F4ED
:1008A0008091B0008F7D8093B000E32FF0E0EE0FD9
:1008B000FF1FEE58FF4FA591B491662329F48C9148
:1008C000909589238C9308958C91892B8C9308950E
:1008D000682F70E0CB0182559F4FFC012491CB0122
:1008E00086569F4FFC0144916A577F4FFB019491BC
:1008F000992319F420E030E038C0222331F123306D
:1009000021F4809180008F7705C0243031F48091EC
:1009100080008F7D8093800018C0213019F484B549
:100920008F7704C0223021F484B58F7D84BD0DC043
:10093000263021F48091B0008F7705C0273029F44C
:100940008091B0008F7D8093B000892F90E0880F58
:10095000991F84589F4FFC01A591B4918C9120E080
:1009600030E0842311F021E030E0C901089597FBC5
:10097000092E07260AD077FD04D049D006D00020E2
:100980001AF4709561957F4F0895F6F790958195CB
:100990009F4F0895A1E21A2EAA1BBB1BFD010DC09B
:1009A000AA1FBB1FEE1FFF1FA217B307E407F5071F
:1009B00020F0A21BB30BE40BF50B661F771F881FFB
:1009C000991F1A9469F760957095809590959B0191
:1009D000AC01BD01CF01089597FB092E05260ED06D
:1009E00057FD04D0D7DF0AD0001C38F4509540954D
:1009F000309521953F4F4F4F5F4F0895F6F79095F3
:100A00008095709561957F4F8F4F9F4F0895AA1BDA
:100A1000BB1B51E107C0AA1FBB1FA617B70710F0E9
:100A2000A61BB70B881F991F5A95A9F7809590951B
:100A3000BC01CD010895EE0FFF1F0590F491E02D4C
:060A40000994F894FFCFB9
:100A46004C0044005300FFFF2C010000C8000000CA
:040A56000000BF02DB
:00000001FF
