:100000000C9462000C948A000C948A000C948A0070
:100010000C948A000C948A000C948A000C948A0038
:100020000C948A000C948A000C948A000C948A0028
:100030000C948A000C948A000C948A000C948A0018
:100040000C94B4030C948A000C947F010C948A00E5
:100050000C948A000C948A000C948A000C948A00F8
:100060000C948A000C948A000000000024002700F1
:100070002A0000000000250028002B0000000000DE
:1000800023002600290004040404040404040202DA
:100090000202020203030303030301020408102007
:1000A0004080010204081020010204081020000012
:1000B0000007000201000003040600000000000029
:1000C0000000740211241FBECFEFD4E0DEBFCDBF0D
:1000D00011E0A0E0B1E0E8E2FBE002C005900D9283
:1000E000A031B107D9F711E0A0E1B1E001C01D9244
:1000F000AA3BB107E1F710E0C4ECD0E004C02297BE
:10010000FE010E948E05C23CD107C9F70E9478010A
:100110000C9492050C9400001F93182F0E94240445
:100120002091140130911501409116015091170151
:10013000621B730B840B950B209108013091090110
:10014000442737FD4095542F26173707480759078E
:10015000D8F40E94240460931401709315018093D5
:1001600016019093170160E070E080911201909168
:100170001301892B11F461E070E070931301609317
:100180001201812F0E948C041F910895809110010B
:10019000909111018230910599F0833091052CF4F2
:1001A000009749F00197A9F40BC08330910541F005
:1001B000049779F40AC08DE060E00E948C040895F1
:1001C0008DE090E00E948C0008958DE061E00E9437
:1001D0008C040895CF93DF938091100190911101C9
:1001E0008130910501F1823091051CF4892B41F099
:1001F0005EC082309105D9F1039709F058C040C024
:1002000082E00E94D904EC018130910509F04FC0D1
:100210008CE991E060E071E00E94DA02D093110174
:10022000C093100144C082E00E94D904892B59F484
:100230008CE991E062E071E00E94DA021092110113
:100240001092100134C08CE991E00E9425028823AD
:1002500071F18CE991E00E9439029093070180933B
:1002600006018334910519F582E090E01CC08CE909
:1002700091E064E071E00E94DA0283E090E013C054
:100280008CE991E00E942502882389F08CE991E0B5
:100290000E943902909307018093060180359105F1
:1002A00031F484E090E09093110180931001DF918C
:1002B000CF91089560911001709111018CE991E046
:1002C0000E94A4030E94EA000E94C60008958DE0E7
:1002D00061E00E946C0482E060E00E946C048CE9A2
:1002E00091E040E855E260E070E00E94BC010895B2
:1002F0000E9432040E9467010E945A01FDCF1F92A2
:100300000F920FB60F9211242F933F934F935F9349
:100310006F937F938F939F93AF93BF93EF93FF93CD
:100320004091C600E0919801F0919901CF010196AA
:1003300060E870E00E9428059C0180919A019091EC
:100340009B012817390739F0E85EFE4F4083309350
:10035000990120939801FF91EF91BF91AF919F91E7
:100360008F917F916F915F914F913F912F910F905E
:100370000FBE0F901F901895AF92BF92CF92DF9251
:10038000EF92FF920F931F93CF93DF936C017A014B
:100390008B01DC011496AD90BC901597CB01BA018E
:1003A00022E030E040E050E00E945D05205C3D4BE3
:1003B000404F5F4FCA01B901A80197010E945D0536
:1003C000C901DA010197A109B109292F3A2F4B2F51
:1003D000552747FD5A950196A11DB11DE5012883BA
:1003E000E601EE81FF8181508083EA85FB852081D3
:1003F00041E050E0CA010E8402C0880F991F0A94A0
:10040000E2F7282B2083EA85FB852081CA010F842F
:1004100002C0880F991F0A94E2F7282B2083EA85EF
:10042000FB858081088802C0440F551F0A94E2F7BB
:10043000842B8083DF91CF911F910F91FF90EF90DC
:10044000DF90CF90BF90AF900895DC011296ED91B0
:10045000FC911397E058FF4F8191919180589F4FE5
:1004600020813181821B930B60E870E00E94280597
:100470000895CF93DF93DC011296ED91FC911397D1
:10048000EF01CE57DF4F48815981E058FF4F8081FF
:100490009181E058F0408417950719F42FEF3FEF52
:1004A0000CC0E40FF51F2081CA01019660E870E0DE
:1004B0000E9428059983888330E0C901DF91CF919C
:1004C0000895FC01A085B18521898C9190E0022ED0
:1004D00002C0959587950A94E2F780FFF6CF0484D1
:1004E000F585E02D608308958EE091E090939D0165
:1004F00080939C0188E191E090939F0180939E01FD
:1005000085EC90E09093A1018093A00184EC90E0B1
:100510009093A3018093A20180EC90E09093A501B9
:100520008093A40181EC90E09093A7018093A601B1
:1005300086EC90E09093A9018093A80184E08093D9
:10054000AA0183E08093AB0187E08093AC0185E052
:100550008093AD0108950F931F93CF93DF938C0188
:10056000EB0109C02196D801ED91FC910190F08139
:10057000E02DC801099568816623A1F7DF91CF912D
:100580001F910F9108950F931F938C01DC01ED9142
:10059000FC910190F081E02D6DE00995D801ED917D
:1005A000FC910190F081E02DC8016AE009951F914E
:1005B0000F9108950F931F938C010E94AB02C80105
:1005C0000E94C3021F910F9108952F923F924F9264
:1005D0005F926F927F928F929F92AF92BF92CF92D3
:1005E000DF92EF92FF920F931F93DF93CF93CDB7DC
:1005F000DEB7A0970FB6F894DEBF0FBECDBF1C01CB
:100600006A017B01411551056105710549F4DC0161
:10061000ED91FC910190F081E02D60E3099554C0CB
:10062000882499245401422E55246624772401E01D
:1006300010E00C0F1D1F080D191DC701B601A30105
:1006400092010E943B05F80160830894811C911C73
:10065000A11CB11CC701B601A30192010E943B0578
:10066000C901DA016C017D01C114D104E104F10476
:10067000F1F681E0E82EF12CEC0EFD1EE80CF91CE1
:100680003E010894611C711CD501C4010197A109A8
:10069000B1096C01C818D90814C0F601EE0DFF1D90
:1006A00060816A3010F4605D01C0695CD101ED9138
:1006B000FC910190F081E02DC10109950894E108B9
:1006C000F1086E147F0449F7A0960FB6F894DEBFC8
:1006D0000FBECDBFCF91DF911F910F91FF90EF9093
:1006E000DF90CF90BF90AF909F908F907F906F9052
:1006F0005F904F903F902F900895EF92FF920F934D
:100700001F93CF93DF93EC017A018B0177FF0FC02A
:10071000E881F9810190F081E02D6DE20995109555
:100720000095F094E094E11CF11C011D111DCE0117
:10073000B801A7012AE00E94E502DF91CF911F9145
:100740000F91FF90EF9008950F931F938C01AB01D1
:10075000662757FD6095762F0E947D03C8010E9491
:10076000C3021F910F9108951F920F920FB60F921F
:1007700011242F938F939F93AF93BF938091AE01DA
:100780009091AF01A091B001B091B1010196A11D6E
:10079000B11D8093AE019093AF01A093B001B093CF
:1007A000B1018091B2019091B301A091B401B091D7
:1007B000B5018050904CAF4FBF4F8093B2019093E2
:1007C000B301A093B401B093B50127C08091B201E9
:1007D0009091B301A091B401B091B50180589E43AE
:1007E000A040B0408093B2019093B301A093B401B4
:1007F000B093B5018091B6019091B701A091B80175
:10080000B091B9010196A11DB11D8093B6019093DD
:10081000B701A093B801B093B9018091B201909152
:10082000B301A091B401B091B50181589E43A0409D
:10083000B04060F6BF91AF919F918F912F910F9033
:100840000FBE0F901F9018958FB7F8942091B601A6
:100850003091B7014091B8015091B9018FBFB901F2
:10086000CA010895789484B5826084BD84B581609E
:1008700084BD85B5826085BD85B5816085BDEEE6A8
:10088000F0E0808181608083E1E8F0E08081826037
:100890008083808181608083E0E8F0E080818160F6
:1008A0008083E1EBF0E0808184608083E0EBF0E026
:1008B000808181608083EAE7F0E0808184608083CA
:1008C0008081826080838081816080838081806874
:1008D00080831092C1000895282F30E0C901865608
:1008E0009F4FFC0194912A573F4FF901849188232F
:1008F00091F0E82FF0E0EE0FFF1FE859FF4FA591B0
:10090000B491662329F48C91909589238C93089552
:100910008C91892B8C930895482F50E0CA01825501
:100920009F4FFC012491CA0186569F4FFC01949170
:100930004A575F4FFA0134913323D1F1222331F129
:10094000233021F4809180008F7705C0243031F46A
:10095000809180008F7D8093800018C0213019F431
:1009600084B58F7704C0223021F484B58F7D84BD97
:100970000DC0263021F48091B0008F7705C027305C
:1009800029F48091B0008F7D8093B000E32FF0E0D8
:10099000EE0FFF1FEE58FF4FA591B491662329F487
:1009A0008C91909589238C9308958C91892B8C93AD
:1009B0000895682F70E0CB0182559F4FFC01249170
:1009C000CB0186569F4FFC0144916A577F4FFB0134
:1009D0009491992319F420E030E038C0222331F1BA
:1009E000233021F4809180008F7705C0243031F4CA
:1009F000809180008F7D8093800018C0213019F491
:100A000084B58F7704C0223021F484B58F7D84BDF6
:100A10000DC0263021F48091B0008F7705C02730BB
:100A200029F48091B0008F7D8093B000892F90E0F1
:100A3000880F991F84589F4FFC01A591B4918C9108
:100A400020E030E0842311F021E030E0C901089576
:100A500097FB092E07260AD077FD04D049D006D08F
:100A600000201AF4709561957F4F0895F6F79095E0
:100A700081959F4F0895A1E21A2EAA1BBB1BFD0171
:100A80000DC0AA1FBB1FEE1FFF1FA217B307E4076D
:100A9000F50720F0A21BB30BE40BF50B661F771FC5
:100AA000881F991F1A9469F76095709580959095A5
:100AB0009B01AC01BD01CF01089597FB092E0526CE
:100AC0000ED057FD04D0D7DF0AD0001C38F4509563
:100AD0004095309521953F4F4F4F5F4F0895F6F762
:100AE00090958095709561957F4F8F4F9F4F08959A
:100AF000AA1BBB1B51E107C0AA1FBB1FA617B70744
:100B000010F0A61BB70B881F991F5A95A9F780955F
:100B10009095BC01CD010895EE0FFF1F0590F49153
:080B2000E02D0994F894FFCFC9
:100B2800440053004900FFFFC800000000006102B4
:00000001FF
